:0300000002149F48
:0C149F00787FE4F6D8FD7581560214E653
:08190700E0FBA3E0FAA3E0F904
:10190F00E4FFFE120989600E740129F9E43AFA0F17
:06191F00BF00010E80ED87
:01192500229F
:10127900900098121907D3EF9400EE64809480408F
:1012890021900098E0FBA3E0FAA3E0F990009CE02C
:101299009000C6F090009BE09000C7F0E4FDFF12BB
:1012A90013F59000A1121907D3EF9400EE6480940E
:1012B9008040229000A1E0FBA3E0FAA3E0F99000AE
:1012C900A5E09000C6F09000A4E09000C7F0E4FD0E
:1012D9007F021213F59000AA121907D3EF9400EEBA
:1012E9006480948040229000AAE0FBA3E0FAA3E086
:1012F900F99000AEE09000C6F09000ADE09000C714
:10130900F0E4FD7F041213F59000B3121907D3EF2F
:101319009400EE6480948040229000B3E0FBA3E047
:10132900FAA3E0F99000B7E09000C6F09000B6E0AB
:0C1339009000C7F0E4FD7F061213F522BF
:10169F00900098E0FBA3E0FAA3E0F990009CE090A3
:1016AF0000C6F0E4A3F0FDFF1213F59000A1E0FBDC
:1016BF00A3E0FAA3E0F99000A5E09000C6F0E4A340
:1016CF00F0FD7F021213F59000AAE0FBA3E0FAA34E
:1016DF00E0F99000AEE09000C6F0E4A3F0FD7F04C7
:1016EF001213F59000B3E0FBA3E0FAA3E0F990002A
:0F16FF00B7E09000C6F0E4A3F0FD7F060213F5FC
:071A63007FE87E0302192653
:1018C200900084EFF0A3EBF0A3EAF0A3E9F090001C
:1018D20082E0900088F0900083E0900089F07B0124
:0418E2007A0079848B
:0118E60022DF
:1017680078F67C007D017B017A0079D27E007F09C2
:1017780012096378FF7C007D017B017A0079DB7EAA
:10178800007F0912096378087C017D017B017A00DA
:1017980079E47E007F0912096378117C017D017B61
:1017A800017A0079ED7E007F091209637B017A00D6
:0217B80079F6C0
:0117BA00220C
:1019E80090007EEFF0A3EDF0A3EBF07B017A007995
:0119F8007E70
:0119F90022CB
:100A6800E4FDFC90008B121907D3EF9400EE64802C
:100A78009480401290008AE0FFED24B6F582E434B9
:100A880000F583EFF00D900094121907D3EF94004E
:100A9800EE648094804012900093E0FF74B62DF5C8
:100AA80082E43400F583EFF00D90009D121907D30E
:100AB800EF9400EE64809480401290009CE0FF74F4
:100AC800B62DF582E43400F583EFF00D9000A61200
:100AD8001907D3EF9400EE6480948040129000A52B
:100AE800E0FF74B62DF582E43400F583EFF00DE4F1
:100AF800FFEFC39D501074B62FF582E43400F583E0
:100B0800E02CFC0F80EBED24FE601614601D1470C1
:100B180003020C0524036003020D269000B4E0FFD5
:100B2800229000B4E0FFC3EC9FFF229000B6E09053
:100B380000BAF09000B7E09000BEF09000B8E090E6
:100B480000C2F09000B5E09000BBB44C297401F0ED
:100B5800A37400F0A374C2F09000BF7401F0A374F2
:100B680000F0A374BAF09000C37401F0A37400F00D
:100B7800A374BEF080277401F0A37400F0A374BEC0
:100B8800F09000BF7401F0A37400F0A374C2F09059
:100B980000C37401F0A37400F0A374BAF09000BA13
:100BA800E0FF9000B4E0FEB507159000BBE0F9A3A4
:100BB800E0FAA3E09000CAC9F0A3EAF0A3E9F09034
:100BC80000BEE0B50613A3E0F9A3E0FAA3E09000A5
:100BD800CAC9F0A3EAF0A3E9F09000C2E0FF9000D0
:100BE800B4E0B507159000C3E0F9A3E0FAA3E090DC
:100BF80000CAC9F0A3EAF0A3E9F0020D179000B605
:100C0800E09000BAF09000B7E09000BEF09000B815
:100C1800E09000C2F09000B9E09000C6F09000B5F6
:100C2800E09000BBB44C377401F0A37400F0A374D7
:100C3800C6F09000BF7401F0A37400F0A374BAF07A
:100C48009000C37401F0A37400F0A374BEF0900088
:100C5800C77401F0A37400F0A374C2F08035740166
:100C6800F0A37400F0A374BEF09000BF7401F0A369
:100C78007400F0A374C2F09000C37401F0A3740070
:100C8800F0A374C6F09000C77401F0A37400F0A339
:100C980074BAF09000BAE0FF9000B4E0FEB5071512
:100CA8009000BBE0F9A3E0FAA3E09000CAC9F0A362
:100CB800EAF0A3E9F09000BEE0B50613A3E0F9A3BB
:100CC800E0FAA3E09000CAC9F0A3EAF0A3E9F09023
:100CD80000C2E0FF9000B4E0B507159000C3E0F94A
:100CE800A3E0FAA3E09000CAC9F0A3EAF0A3E9F0F0
:100CF8009000C6E0FF9000B4E0B507139000C7E08D
:100D0800F9A3E0FAA3E0A3C9F0A3EAF0A3E9F090FD
:0E0D180000CAE0FBA3E0FAA3E0F9120989FF8C
:010D260022AA
:1015B20090008EE0B4FF1890008B121907D3EF94BD
:1015C20000EE6480948040077B017A00798A229041
:1015D2000097E0B4FF18900094121907D3EF94001B
:1015E200EE6480948040077B017A00799322900018
:1015F200A0E0B4FF1890009D121907D3EF9400EEFB
:101602006480948040077B017A00799C229000A933
:10161200E0B4FF179000A6121907D3EF9400EE640E
:0C16220080948040067B017A0079A522AC
:1019FA009000021209A2D3940050037FFF227F01B4
:011A0A0022B9
:10192600E4FDFCC3ED9FEC9E50100079027BC7DB03
:0A193600FED9FC0DBD00010C80E994
:011940002284
:10197500E4FEEEC39F5010007D087C017BF3DBFE87
:07198500DCFCDDFA0E80EB33
:01198C002238
:10162E000053746172742047616D6500436F6E7470
:10163E00696E75652047616D650048656C70007355
:10164E0074617274006D61696E00417474726962C6
:10165E00757465004261636B7061636B0043617604
:10166E006500446973636F766572006174747269A4
:10167E00627574650044616D6167650044656665F9
:10168E006E7365004865616C7468002D2D2D2D2DCF
:01169E00004B
:021A0B00C10315
:100D27007B647D057F0A1219E878217C007D007EAF
:100D3700007F031209637BFF7A16792E9000827475
:100D470001F0E4A3F07F011218C278007C007D0156
:100D57007E007F091209637BFF7A16792F90008244
:100D67007401F0E4A3F07F021218C278097C007DB9
:100D7700017E007F091209637BFF7A16793A90009A
:100D8700827401F0E4A3F07F031218C278127C008A
:100D97007D017E007F091209637BFF7A16794890EF
:100DA700008274FFF0E4A3F07F041218C2781B7C62
:100DB700007D017E007F0912096390002474FFF013
:100DC700A37416F0A3744DF090000F74FFF0A37492
:100DD70016F0A37453F07BFF7A167958900082744B
:100DE700FFF0E4A3F07F011218C2782A7C007D018E
:100DF7007E007F091209637BFF7A16796290008271
:100E07007401F0E4A3F07F021218C278337C007DEE
:100E1700017E007F091209637BFF7A16796B9000C8
:100E2700827401F0E4A3F07F031218C2783C7C00BF
:100E37007D017E007F091209637BFF7A1679709026
:100E470000827401F0E4A3F07F041218C278457C95
:100E5700007D017E007F0912096390004E74FFF048
:100E6700A37416F0A37453F090003074FFF0A374CA
:100E770016F0A37479F07BFF7A1679839000827459
:100E870001F0A374FFF07F011218C278547C007D33
:100E9700017E007F091209637BFF7A16798A900029
:100EA700827401F0A374FFF07F021218C2785D7C90
:100EB700007D017E007F091209637BFF7A16799214
:100EC7009000827401F0A374FFF07F031218C278B8
:100ED700667C007D017E007F091209637BFF7A161D
:100EE70079999000827401F0A374FFF07F041218BF
:100EF700C2786F7C007D017E007F09120963900034
:100F07007874FFF0A37416F0A37479F0782D7C0041
:0F0F17007D007B017A0079007E007F2A0209634A
:1019BC0078977C007D017B007A00792D7E007F2A50
:0619CC001209630212790A
:10134500900090E0F9A3E0FAA3E0A3C9F0A3EAF0C6
:10135500A3E9F0E4A3F0900096E0FFC394034003F3
:101365000213F4EF75F02AA42424F582E43400F581
:1013750083E0FBA3E0FAA3E0F9C003C002C001903B
:101385000093E0FBA3E0FAA3E0F9D082D083D0E09C
:101395006B7008E965827003EA6583704978977C0C
:1013A500007D01FB7A00792DFE7F2A120963121652
:1013B5009F900096E075F02AA42400F9740035F09A
:1013C500FA7B01782D7C007D007E007F2A1209635F
:1013D50078977C007D017B007A00792D7E007F2A3D
:0F13E500120963121279900096E004F002135B74
:0113F40022D6
:100F2600E4900080F012183990007EEFF0644C6077
:100F360008E064526003020FD2E531B4FF1F90004F
:100F46007FE52DF0753101AB2EAA2FA9309000C692
:100F5600E532F0A3E531F0E4FDFF1213F5E53AB40E
:100F6600FF2090007FE536F0753A01AB37AA38A925
:100F7600399000C6E53BF0A3E53AF0E4FD7F0212A6
:100F860013F5E543B4FF2090007FE53FF07543017C
:100F9600AB40AA41A9429000C6E544F0A3E543F060
:100FA600E4FD7F041213F5E54CB4FF2090007FE5C5
:100FB60048F0754C01AB49AA4AA94B9000C6E54DCD
:100FC600F0A3E54CF0E4FD7F061213F590007EE0F9
:100FD600B44C02800790007EE0B4522B788A7C00E5
:100FE6007D017B007A00792D7E007F2A12096390AD
:100FF600007FE09000B4F090007EE09000B5F01223
:101006000A6890007FEFF090007EE0FF644C600578
:10101600EF6452707690007FE024FE602214603800
:1010260014604E240370647531FFAB2EAA2FA930CD
:101036009000C6E532F0A3E531F0E4FDFF80497586
:101046003AFFAB37AA38A9399000C6E53BF0A3E5CD
:101056003AF0E4FD7F0280307543FFAB40AA41A918
:10106600429000C6E544F0A3E543F0E4FD7F04802A
:1010760017754CFFAB49AA4AA94B9000C6E54DF03F
:0E108600A3E54CF0E4FD7F061213F530033BAA
:10109400C203788A7C007D017B007A00792D7E0072
:1010A4007F2A1209631215B278817C007D017E00CB
:1010B4007F09120963788A7C007D017B017A0079BB
:0B10C400817E007F09120963121345B2
:0110CF0022FE
:03003B00021A7D29
:031A7D00D203325F
:081A5B00C2B3000000D2B32267
:091A3700EF6003D29722C297224E
:091A4000EF6003D2B222C2B2220F
:02180700AE072A
:10180900E4FDFCE4FF121A37EE5480C41313135499
:1018190001FF121A4000EE25E0FE7F01121A37007F
:0F1829001F121A370DBD00010CED64084C70D46E
:01183800228D
:031A8000021A5BEC
:0D1A2A00456E636F6465725F496E697400FC
:1018E700758E0112152B121A6A7BFF7A1A792A90C4
:1018F70000C674FFF0A3F0E4FDFF1213F502170E04
:0E1A1C001218E7120D271219BC120F2680FBBC
:10003E0000000000000000000000000000000000B2
:10004E00000000F800000000000000333000000047
:10005E0000100C06100C060000000000000000004E
:10006E0040C07840C0784000043F04043F040400C0
:10007E00007088FC08300000001820FF211E0000D0
:10008E00F008F000E018000000211C031E211E00E5
:10009E0000F00888700000001E212324192721106B
:1000AE0010160E000000000000000000000000000E
:1000BE00000000E0180402000000000718204000B5
:1000CE0000020418E00000000040201807000000A5
:1000DE00404080F0804040000202010F0102020009
:1000EE00000000F0000000000101011F01010100ED
:1000FE00000000000000000080B070000000000052
:10010E0000000000000000000001010101010101DA
:10011E000000000000000000003030000000000071
:10012E000000000080601804006018060100000046
:10013E0000E010080810E000000F102020100F0043
:10014E00001010F8000000000020203F20200000CA
:10015E000070080808887000003028242221300022
:10016E0000300888884830000018202020110E002A
:10017E000000C02010F8000000070424243F2400D3
:10018E0000F80888880808000019212020110E00A8
:10019E0000E0108888180000000F112020110E00BA
:1001AE0000380808C83808000000003F00000000B2
:1001BE000070880808887000001C222121221C0073
:1001CE0000E010080810E0000000312222110F009C
:1001DE00000000C0C0000000000000303000000031
:1001EE0000000080000000000000806000000000A1
:1001FE0000008040201008000001020408102000BA
:10020E004040404040404000040404040404040004
:10021E000008102040800000002010080402010099
:10022E00007048080808F000000000303601000099
:10023E00C030C828E810E0000718272423140B004C
:10024E000000C038E0000000203C230202273820C6
:10025E0008F8888888700000203F202020110E00AA
:10026E00C0300808080838000718202020100800A1
:10027E0008F808080810E000203F202020100F008A
:10028E0008F88888E8081000203F20202320180056
:10029E0008F88888E8081000203F200003000000BE
:1002AE00C03008080838000007182020221E02005F
:1002BE0008F808000008F808203F210101213F201E
:1002CE00000808F8080800000020203F2020000049
:1002DE0000000808F8080800C08080807F00000039
:1002EE0008F888C028180800203F20012638200072
:1002FE0008F8080000000000203F202020203000D9
:10030E0008F8F800F8F80800203F003F003F2000F2
:10031E0008F830C00008F808203F200007183F00FA
:10032E00E01008080810E0000F10202020100F0029
:10033E0008F808080808F000203F2101010100001C
:10034E00E01008080810E0000F18242438504F0061
:10035E0008F8888888887000203F2000030C302021
:10036E0000708808080838000038202121221C005F
:10037E00180808F8080818000000203F20000000A8
:10038E0008F808000008F808001F202020201F0091
:10039E000878880000C83808000007380E010000F1
:1003AE00F80800F80008F800033C0700073C0300BB
:1003BE00081868808068180820302C03032C302021
:1003CE000838C800C83808000000203F2000000090
:1003DE0010080808C83808002038262120201800E8
:1003EE00000000FE020202000000007F40404000BC
:1003FE00000C30C000000000000000010638C000F4
:10040E0000020202FE000000004040407F0000009B
:10041E0000000402020204000000000000000000C0
:10042E0000000000000000008080808080808080BE
:10043E0000020204000000000000000000000000A6
:10044E0000008080808000000019242222223F209C
:10045E0008F8008080000000003F112020110E00DF
:10046E000000008080800000000E1120202011006E
:10047E00000000808088F800000E112020103F2020
:10048E000000808080800000001F222222221300A4
:10049E00008080F0888888180020203F20200000EF
:1004AE000000808080808000006B949494936000A4
:1004BE0008F8008080800000203F210000203F20AF
:1004CE0000809898000000000020203F20200000AF
:1004DE00000000809898000000C08080807F00009F
:1004EE0008F8000080808000203F24022D3020007C
:1004FE00000808F8000000000020203F2020000027
:10050E008080808080808000203F20003F20003F40
:10051E008080008080800000203F210000203F204E
:10052E000000808080800000001F202020201F00FF
:10053E00808000808000000080FFA12020110E002E
:10054E000000008080808000000E112020A0FF801F
:10055E00808080008080800020203F2120000100CC
:10056E000000808080808000003324242424190021
:10057E00008080E0808000000000001F202000002E
:10058E008080000000808000001F202020103F206F
:10059E00808080000080808000010E3008060100FF
:1005AE0080800080008080800F300C030C300F00A4
:1005BE0000808000808080000020312E0E312000CF
:1005CE00808080000080808080818E7018060100FF
:1005DE0000808080808080000021302C222130001D
:1005EE0000000000807C020200000000003F40403E
:1005FE0000000000FF00000000000000FF000000EF
:10060E000002027C800000000040403F000000001D
:10061E0000060101020204040000000000000000B8
:041A0D004101300063
:091A4900EF6003D2B422C2B42202
:091A5200EF6003D2B522C2B522F7
:1019A500AE07E4FF121A49121A52AF061218077F42
:0719B50001121A49021A5247
:10198D00AE077F01121A491F121A52AF061218071D
:08199D007F01121A49021A52DF
:09186B009000C8E004FFA3E0FDB9
:101874009000D1EDF0EF24B0FF1219A59000D1E053
:10188400540FFF1219A59000D1E0C4540F4410FF67
:031894000219A591
:061A710090012EEFF022AF
:10170E00E490007EF0A3F090007EE0FEA3E0FFC325
:10171E009408EE648094805040E4FD121874E490B6
:10172E000080F0A3F0E4FF12198D900081E004F028
:10173E007006900080E004F0C3900081E0948090E9
:10174E000080E06480948040DC90007FE004F070C4
:09175E00B690007EE004F080AEBC
:01176700225F
:1000030090007EEEF0A3EFF07F201219A590007E02
:10001300E0FEA3E0FFEE701AEF14600E14601314F9
:10002300600C2403700CE4FF800A7F0180067F03C9
:0800330080027F021219A522D0
:10152B007FAE1219A5E4FF1219A57F101219A57F22
:10153B00401219A57FB01219A57F811219A57FFF43
:10154B001219A57FA11219A57FA61219A57FC91281
:10155B0019A57FA81219A57F3F1219A57FD31219C0
:10156B00A5E4FF1219A57FD51219A57F801219A525
:10157B007FD91219A57FF11219A57FDA1219A57F50
:10158B00121219A57FDB1219A57F401219A57F8DA9
:10159B001219A57F141219A57F027E0012000312E7
:0715AB00170E7FAF0219A526
:0810D0009000C8EFF0A3EDF061
:1010D800E49000CCF0A3F0EB75F010A4243EF97472
:1010E800FE35F0FAA374FFF0A3EAF0A3E9F090004C
:1010F800C8E01218709000CBE0700302121F147041
:101108000302119A24026003021278E49000CCF0E2
:10111800A3F09000CCE0FEA3E0FFC39408EE648047
:1011280094805025A3E0FBA3E0FAA3E0F98F828E18
:10113800831209A2F4FF12198D9000CDE004F0701B
:10114800D19000CCE004F080C912186BE49000CC78
:10115800F0A3F09000CCE0FEA3E0FFC39408EE6497
:101168008094804003021278A3E0FBA3E0FAA3E096
:10117800F974082FF582E43EF5831209A2F4FF12F0
:10118800198D9000CDE004F070C99000CCE004F017
:1011980080C1E49000CCF0A3F09000CCE0FEA3E086
:1011A800FFC39408EE648094805024A3E0FBA3E07E
:1011B800FAA3E0F98F828E831209A2FF12198D908B
:1011C80000CDE004F070D29000CCE004F080CA12A8
:1011D800186BE49000CCF0A3F09000CCE0FEA3E004
:1011E800FFC39408EE648094804003021278A3E061
:1011F800FBA3E0FAA3E0F974082FF582E43EF58337
:101208001209A2FF12198D9000CDE004F070CA9067
:1012180000CCE004F080C2E49000CCF0A3F0E4FF3E
:1012280012198D9000CDE004F070069000CCE00417
:10123800F0C39000CDE094089000CCE064809480E6
:1012480040DC12186BE49000CCF0A3F0E4FF121914
:101258008D9000CDE004F070069000CCE004F0C35F
:101268009000CDE094089000CCE06480948040DC4D
:011278002253
:1013F5009000C1EFF0A3EDF0A3EBF0A3EAF0A3E9B1
:01140500F0F6
:10140600E4F51D9000C3E0FBA3E0FAA3E0F9851D17
:10141600827583001209A26004051D80E6851D1CE5
:10142600C37410951CF51E9000C6E0146025047068
:101436002CAC1EE41207DEE4FBFAF97840120737FB
:10144600E4FBFAF9784112062E1208129000C2EF58
:10145600F0800AE51E75F008A49000C2F0E4F51DC0
:10146600E51DC3951C50319000C1E0FFA3E0FDA32C
:10147600E0FBA3E0FAA3E0F9851D8275830012095B
:10148600A2FB9000C7E09000CBF01210D09000C2F3
:08149600E02408F0051D80C8E8
:01149E00222B
:061A770090012FEFF022A8
:10194100E4FD7C01C374079FFFE49E7E01EEA807BE
:09195100088002C333D8FC4DFFED
:01195A00226A
:0C17BB00900120EEF0A3EFF0AB05AA04B3
:1017C7007C007D08AF03AE021209CFC374079F9058
:1017D7000123F0E49E900122F0900120E0FFA3E0B6
:1017E700900124CFF0A3EFF0AE02AF037C007D0899
:0F17F7001209CFA3ECF0A3EDF07B017A01792268
:0118060022BF
:101897001217BB78287C017D017E007F0612096341
:1018A700900128A3E0FFA3A3E0FD12187490012C78
:0B18B700E0FEA3E0FF12194102198DB2
:041A1100410131005E
:1019D200759850758920758780758DF3758BF3D254
:0619E200ACD2AFD28E2250
:10195B00C2AC1209896010F599740129F9E43AFABD
:0A196B003099FDC29980EBD2AC2246
:061A1500C100C101C10285
:071A6A00D2C4D2C6D2AF22A4
:10183900E4FF309005309102D200A290309101B3BB
:101849005008A2909201A2919202300014209011A6
:1018590020910E3001047F4C80053002027F52C274
:01186900007E
:01186A00225B
:10062E00EC4D6011E8497017ED33EC3304600DE4C6
:10063E00FCFFFEFD22E933E8330470F802087E1257
:10064E00084958046009E4CC248150062850090258
:10065E000888284003020885C0E0EB4A7044B98040
:10066E0006D0E0FB020874EF4E701CBD8008EBFF55
:10067E00EAFEE9FD80EBE98DF0A4FEE5F002071736
:10068E00E9CDF9EAFEEBFFEF89F0A4FCE5F0CE89A7
:10069E00F0A42EFFE435F0CD89F0A42DFEE435F064
:1006AE008067EF4E7005BD80D780C3EF8BF0A4AC92
:1006BE00F0EE8BF0A42CFCE435F0F8EF8AF0A42CCD
:1006CE00E5F038FCE433CB8DF0A42CFCE5F03BF8E0
:1006DE00EE8AF0A42CFCE5F038F8E433CF89F0A4D0
:1006EE002CFCE5F038CF3400CE89F0A42FFFE5F0D6
:1006FE003EFEE433C98DF0A42EFEE5F039CD8AF02E
:10070E00A42FFFE5F03EFEE43DFD33D0E0FB5007A5
:10071E000BBB000F020888EC2CFCEF33FFEE33FE10
:06072E00ED33FD0208603E
:10073400020888EC5D046005E85904700302087E31
:10074400120849580460F6EC4860F2EC7004FDFEAF
:10075400FF22C860DB2481C85009C3986002500698
:100764000208859850CAF582E9294B4A7005AB8284
:1007740002087475F0007C1A7880C3EF9BEE9AED42
:1007840099400DC3EF9BFFEE9AFEED99FDE842F010
:10079400DC23ACF0D0E0FFD0E0FED0E0FDAB822063
:1007A400E7101BEB60BAEC2CFCEF33FFEE33FEEDED
:1007B40033FD020860E803F830E705C0F075F00087
:1007C400EF2FFFEE33FEED33FD40B830E7C280AAD1
:1007D40075F020800E75F010800575F0087D007EA0
:1007E400007F003392D530D503120A05EC33401054
:1007F400EF33FFEE33FEED33FDEC33FCD5F0ED22A9
:0E080400E5F0247EA2D513CC92E7CDCEFF22E4
:10081200EDD2E7CD33EC3392D524814006E4FFFEDE
:10082200FDFC22FCE4CFCECDCC24E0501174FF803D
:10083200EDC3CC13CCCD13CDCE13CECF13CF0470DA
:07084200F030D5DE020A05CB
:10084900E9D2E7C933E833F892D5EDD2E7CD33ECF5
:0708590033FC5002B2D5226E
:10086000EC30E7100FBF000C0EBE00080DBD0004F9
:100870000BEB6014A2D5EB13FCED92E7FD2274FFA5
:10088000FCFDFEFF22E480F8A2D574FF13FC7D80FE
:03089000E480EF12
:1014AB00021A1CE493A3F8E493A34003F68001F221
:1014BB0008DFF48029E493A3F85407240CC8C33342
:1014CB00C4540F4420C8834004F456800146F6DF11
:1014DB00E4800B0102040810204080901A0BE47E7C
:1014EB00019360BCA3FF543F30E509541FFEE49306
:1014FB00A360010ECF54C025E060A840B8E493A3CD
:10150B00FAE493A3F8E493A3C8C582C8CAC583CAF7
:10151B00F0A3C8C582C8CAC583CADFE9DEE780BEAF
:011A1B0000CA
:10089300E709F608DFFA8046E709F208DFFA803E47
:1008A30088828C83E709F0A3DFFA8032E309F60834
:1008B300DFFA8078E309F208DFFA807088828C839C
:1008C300E309F0A3DFFA806489828A83E0A3F60850
:1008D300DFFA805889828A83E0A3F208DFFA804C2A
:1008E30080D280FA80C680D4806980F28033801001
:1008F30080A680EA809A80A880DA80E280CA80336A
:1009030089828A83ECFAE493A3C8C582C8CCC583E1
:10091300CCF0A3C8C582C8CCC583CCDFE9DEE780B1
:100923000D89828A83E493A3F608DFF9ECFAA9F030
:10093300EDFB2289828A83ECFAE0A3C8C582C8CC86
:10094300C583CCF0A3C8C582C8CCC583CCDFEADE9F
:10095300E880DB89828A83E493A3F208DFF980CC01
:1009630088F0EF60010E4E60C388F0ED2402B404FA
:100973000050B9F582EB2402B4040050AF232345A1
:0609830082239008E373DB
:10098900BB010689828A83E0225002E722BBFE026C
:09099900E32289828A83E493229F
:1009A200BB010CE58229F582E5833AF583E022500A
:1009B20006E92582F8E622BBFE06E92582F8E22254
:0D09C200E58229F582E5833AF583E493226E
:1009CF00C2D5EC30E709B2D5E4C39DFDE49CFCEE43
:1009DF0030E715B2D5E4C39FFFE49EFE120A13C39E
:1009EF00E49DFDE49CFC8003120A1330D507C3E499
:0609FF009FFFE49EFE22B2
:0E0A0500C3E49FFFE49EFEE49DFDE49CFC2202
:100A1300BC000BBE0029EF8DF084FFADF022E4CCC7
:100A2300F875F008EF2FFFEE33FEEC33FCEE9DEC90
:100A3300984005FCEE9DFE0FD5F0E9E4CEFD22EDD6
:100A4300F8F5F0EE8420D21CFEADF075F008EF2F20
:100A5300FFED33FD4007985006D5F0F222C398FD11
:050A63000FD5F0EA22AE
:00000001FF
